:100000000C9438010C9469010C9469010C946901F9
:100010000C9469010C9469010C9469010C946901B8
:100020000C9469010C9469010C9469010C946901A8
:100030000C9469010C9469010C9469010C94690198
:100040000C9469010C94DA040C9469010C94690114
:100050000C9469010C9469010C9469010C940805D5
:100060000C9469010C947C050C9452050C94690164
:100070000C9469010C9469010C9469010C94690158
:100080000C94AC040C9469010C9469010C94690102
:100090000C9469010C9469010C9469010C94690138
:1000A0000C9469010C9469010C947E040C94690110
:1000B0000C9469010C9469010C9469010C9450042E
:1000C0000C9469010C9469010C9469010C94690108
:1000D0000C9469010C9469010C9469010C946901F8
:1000E0000C9469019A019D018C0190019401D40145
:1000F000A101A501AB01AF01B301B901BD01C1016E
:10010000D401C701CB01CF010C94D4010C949A0106
:100110000C94A1010C94BD010C94AF010C94B20598
:100120000C947A030C9433030C94C7010C94900143
:100130000C94C1010C94DA020C94FC020C949D0105
:100140000C94AF020C94CB010C94CF010C94A5013C
:100150000C94AB010C94B9010C9494010C94B30170
:100160000C94EE020C948C01000021002400270066
:100170002A002D00300033000101000004010701B6
:100180000A0100002200250028002B002E0031006B
:10019000340002010000050108010B0105050505F9
:1001A000070508080808020202020A0A08080404EF
:1001B000040401010101010101010303030303031D
:1001C0000303040707070C0C0C0C0C0C0C0C0202AC
:1001D000020206060606060606060B0B0B0B0B0BA9
:1001E0000B0B010210202008081020401020408036
:1001F00002010201080402010102040810204080EB
:100200008040201008040201800402018040201078
:1002100008040201080402010102040810204080C1
:10022000010204081020408000000A0B02090C0D96
:100230000E08070304010000000000000000000099
:1002400000000000000000000000000000000000AE
:10025000000000001211100000000000000000006B
:100260000000000000000000000000000000B205D7
:1002700011241FBECFEFD1E2DEBFCDBF00E00CBF27
:1002800023E0A4E1B2E001C01D92A73FB207E1F76D
:1002900012E0A0E0B2E0E0E0FAE100E00BBF02C053
:1002A00007900D92A431B107D9F711E0C8E3D1E06E
:1002B00000E006C021970109802FFE010E94580A24
:1002C000C733D10780E00807A9F70E94A3060C9462
:1002D000FE0C0C940000362F90E0FC01E85DFD4F11
:1002E0004491FC01EE51FE4F2491FC01E456FE4F77
:1002F0009491992309F46BC0442309F455C050E04C
:10030000FA013197E231F10508F04EC08827EE5826
:10031000FF4F8F4F0C94580A809180008F7707C051
:10032000809180008F7D03C080918000877F8093C3
:1003300080003AC084B58F7702C084B58F7D84BDBC
:1003400033C08091B0008F7703C08091B0008F7D63
:100350008093B00029C0809190008F7707C0809172
:1003600090008F7D03C080919000877F80939000E4
:100370001BC08091A0008F7707C08091A0008F7D67
:1003800003C08091A000877F8093A0000DC0809162
:1003900020018F7707C0809120018F7D03C080915D
:1003A0002001877F80932001E92FF0E0EE0FFF1FEF
:1003B000EE57FE4FA591B4918FB7F894EC9131119F
:1003C00003C020952E2301C02E2B2C938FBF0895A0
:1003D000CF92DF92EF92FF920F931F93CF93DF9311
:1003E0006C018B017A01EC01C758DD4F888187FFD2
:1003F00004C0FB011182108224C08CE08C9D90010E
:100400008D9D300D11248881A901480F511D87FD54
:100410005A958091AE0390E04817590794F488816B
:10042000A901480F511D87FD5A95CA01FA01EE0F27
:10043000FF1F8E0F9F1FFC01E25EFC4F808186FD37
:1004400019C088818F5F88838CE08C9D90018D9D81
:10045000300D11248881A901480F511D87FD5A953F
:100460008091AE0390E048175907BCF488818C3026
:1004700044F113C08881280F311D87FD3A95F90199
:10048000EE0FFF1F2E0F3F1FF901E25EFC4F808130
:1004900060E08F730E946B01D4CFF801808191815D
:1004A000049680349C4918F480E49CE904C0F80167
:1004B000808191810496F701918380838FEF8883F7
:1004C00045C0F801408151818881B901680F711DD3
:1004D00087FD7A95CB01FB01EE0FFF1F8E0F9F1F4B
:1004E000FC01E25EFC4F81819281840F951FF70130
:1004F000918380838881A901480F511D87FD5A95FA
:10050000CA01FA01EE0FFF1F8E0F9F1FFC01E25E72
:10051000FC4F808186FF1AC08881280F311D87FD1E
:100520003A95F901EE0FFF1F2E0F3F1FF901E25E12
:10053000FC4F808161E08F73DF91CF911F910F910C
:10054000FF90EF90DF90CF900C946B01DF91CF91F3
:100550001F910F91FF90EF90DF90CF900895CF9271
:10056000DF92EF92FF920F931F93CF93DF936C0173
:100570007A018B01C0E0D0E0CE15DF0589F0D8010B
:100580006D918D01D601ED91FC910190F081E02DEE
:10059000C6011995892B11F47E0102C02196ECCF7A
:1005A000C701DF91CF911F910F91FF90EF90DF90E6
:1005B000CF900895FC01918D828D981761F0828D06
:1005C000DF01A80FB11D5D968C91928D9F5F9F7387
:1005D000928F90E008958FEF9FEF0895FC01918D29
:1005E000828D981731F0828DE80FF11D858D90E096
:1005F00008958FEF9FEF0895FC01918D228D892F33
:1006000090E0805C9F4F821B91098F73992708951A
:100610008DE792E00E94FC0221E0892B09F420E0A2
:10062000822F0895FC01848DDF01A80FB11DA35A0C
:10063000BF4F2C91848D90E001968F739927848F02
:10064000A689B7892C93A089B1898C9180648C93F9
:10065000938D848D981306C00288F389E02D8081E4
:100660008F7D80830895EF92FF920F931F93CF9316
:10067000DF93EC0181E0888F9B8D8C8D981305C0F2
:10068000E889F989808185FD24C0F62E0B8D10E064
:100690000F5F1F4F0F731127E02E8C8DE8120CC0D7
:1006A0000FB607FCFACFE889F989808185FFF5CF7D
:1006B000CE010E941203F1CF8B8DFE01E80FF11DD8
:1006C000E35AFF4FF0820B8FEA89FB8980818062B9
:1006D00007C0EE89FF896083E889F9898081806499
:1006E000808381E090E0DF91CF911F910F91FF9087
:1006F000EF900895CF93DF93EC01888D8823C9F0A4
:10070000EA89FB89808185FD05C0A889B9898C911A
:1007100086FD0FC00FB607FCF5CF808185FFF2CFB5
:10072000A889B9898C9185FFEDCFCE010E94120373
:10073000E7CFDF91CF91089580E090E0892B21F001
:100740000E940803811125C080E090E0892B41F0D0
:1007500080E090E0892B21F00E94000081111CC0F4
:1007600080E090E0892B41F080E090E0892B21F03F
:100770000E940000811113C080E090E0892BA1F05D
:1007800080E090E0892B81F00E94000081110AC076
:1007900008950E940000D8CF0E940000E1CF0E947F
:1007A0000000EACF0C9400000895CF93DF9300D0AF
:1007B0001F92CDB7DEB769837A838B839C8344E035
:1007C00050E0BE016F5F7F4F8DE792E00E94AF0265
:1007D0000F900F900F900F90DF91CF910895CF93CE
:1007E000DF93C4E4D2E0A8E1B2E0FE01419151916F
:1007F000619171914D935D936D937D9322E0E0370C
:10080000F207A1F780917B00877F80937B0080E4D3
:1008100080937C0080917A00806480937A0080913C
:100820007A0086FDFCCF609178008091790070E0BD
:10083000782B072E000C880B990B0E947C0B609381
:10084000140270931502809316029093170280E3AE
:10085000E4E1F2E0A4E4B2E001900D928A95E1F7C0
:1008600060E070E0CB0129913991499159910E9442
:10087000610A22E0C437D207B1F720E030E040E45B
:1008800051E40E94D20A6093B7037093B803809337
:10089000B9039093BA03DF91CF9108950E949E0C03
:1008A0001F920F920FB60F9211240BB60F922F9337
:1008B0003F934F935F936F937F938F939F93AF93E8
:1008C000BF93EF93FF9348E251E064E271E080E070
:1008D00090E00E94E801FF91EF91BF91AF919F914D
:1008E0008F917F916F915F914F913F912F910F90D9
:1008F0000BBE0F900FBE0F901F9018951F920F9276
:100900000FB60F9211240BB60F922F933F934F9374
:100910005F936F937F938F939F93AF93BF93EF9367
:10092000FF9348EA50E064EA70E083E090E00E94C0
:10093000E801FF91EF91BF91AF919F918F917F91CE
:100940006F915F914F913F912F910F900BBE0F9040
:100950000FBE0F901F9018951F920F920FB60F9217
:1009600011240BB60F922F933F934F935F936F9386
:100970007F938F939F93AF93BF93EF93FF9348E938
:1009800050E064E970E082E090E00E94E801FF91AD
:10099000EF91BF91AF919F918F917F916F915F91F7
:1009A0004F913F912F910F900BBE0F900FBE0F9064
:1009B0001F9018951F920F920FB60F9211240BB62D
:1009C0000F922F933F934F935F936F937F938F93E8
:1009D0009F93AF93BF93EF93FF9348E850E064E891
:1009E00070E081E090E00E94E801FF91EF91BF91FB
:1009F000AF919F918F917F916F915F914F913F91B7
:100A00002F910F900BBE0F900FBE0F901F90189557
:100A10001F920F920FB60F9211242F933F938F9333
:100A20009F93AF93BF9380911A0390911B03A09162
:100A30001C03B0911D033091780223E0230F2D3762
:100A400020F40196A11DB11D05C026E8230F0296D2
:100A5000A11DB11D2093780280931A0390931B036C
:100A6000A0931C03B0931D038091740290917502B2
:100A7000A0917602B09177020196A11DB11D8093DD
:100A8000740290937502A0937602B0937702BF919F
:100A9000AF919F918F913F912F910F900FBE0F902B
:100AA0001F9018951F920F920FB60F9211240BB63C
:100AB0000F922F933F934F935F936F937F938F93F7
:100AC0009F93AF93BF93EF93FF938DE792E00E94C4
:100AD0001203FF91EF91BF91AF919F918F917F9101
:100AE0006F915F914F913F912F910F900BBE0F909F
:100AF0000FBE0F901F9018951F920F920FB60F9276
:100B000011240BB60F922F938F939F93EF93FF9324
:100B1000E0918D02F0918E028081E0919302F0913C
:100B2000940282FD12C09081809196028F5F8F7334
:100B300020919702821751F0E0919602F0E0E3587D
:100B4000FD4F958F8093960201C08081FF91EF91B8
:100B50009F918F912F910F900BBE0F900FBE0F9012
:100B60001F9018951092800210927F0288EE93E0F9
:100B7000A0E0B0E08093810290938202A093830270
:100B8000B093840288E092E090937E0280937D028D
:100B900085EC90E090938A028093890284EC90E047
:100BA00090938C0280938B0280EC90E090938E0265
:100BB00080938D0281EC90E09093900280938F025D
:100BC00082EC90E0909392028093910286EC90E008
:100BD000909394028093930210929602109297023F
:100BE00010929802109299028091AE038033A0F483
:100BF00091E0980F9093AE038093F40390E0FC0192
:100C0000EE0FFF1F8E0F9F1FFC01E25EFC4F88EB73
:100C10009BE09283818303C08FEF8093F40383EB87
:100C200093E09093D8038093D70387EB93E090935E
:100C3000D6038093D5038FEA93E09093DA038093F1
:100C4000D9031092F3031092EB031092EC0310926D
:100C5000ED031092EE0380E090E0AFE7B3E4809301
:100C6000EF039093F003A093F103B093F20384E6B3
:100C700090E0A0E0B0E08093E7039093E803A093B6
:100C8000E903B093EA031092D4031092D30380E0F7
:100C900090E0A0E8BFE38093BB039093BC03A093D4
:100CA000BD03B093BE0340E050E068EC72E44093B3
:100CB000BF035093C0036093C1037093C20380933A
:100CC000C3039093C403A093C503B093C60380935A
:100CD000C7039093C803A093C903B093CA0380E0ED
:100CE00090E0A0E2B1E48093CB039093CC03A09377
:100CF000CD03B093CE038093CF039093D003A09302
:100D0000D103B093D2032FB7F89480911A03909136
:100D10001B03A0911C03B0911D032FBF4091E7035B
:100D20005091E8036091E9037091EA03841B950BED
:100D3000A60BB70B8093DB039093DC03A093DD033A
:100D4000B093DE030895CF93DF93CDB7DEB72A9734
:100D50000FB6F894DEBF0FBECDBF789484B5826025
:100D600084BD84B5816084BD85B5826085BD85B54F
:100D7000816085BD80916E00816080936E001092CD
:100D80008100809181008260809381008091810048
:100D900081608093810080918000816080938000D9
:100DA0008091B10084608093B1008091B000816037
:100DB0008093B00080919100826080939100809137
:100DC0009100816080939100809190008160809378
:100DD00090008091A10082608093A1008091A10089
:100DE00081608093A1008091A00081608093A00029
:100DF0008091210182608093210180912101816095
:100E00008093210180912001816080932001809155
:100E10007A00846080937A0080917A008260809367
:100E20007A0080917A00816080937A0080917A00C4
:100E3000806880937A001092C100E0918D02F09159
:100E40008E0282E08083E0918902F0918A02108212
:100E5000E0918B02F0918C028FEC808310929502CE
:100E6000E0919102F091920286E08083E0918F02FE
:100E7000F0919002808180618083E0918F02F091F7
:100E80009002808188608083E0918F02F0919002CF
:100E9000808180688083E0918F02F0919002808150
:100EA0008F7D80838091F403803308F069C0E7EE82
:100EB000F1E02491E1EAF1E08491882399F090E057
:100EC000880F991FFC01E859FE4FA591B491FC01D0
:100ED000EE57FE4F859194918FB7F894EC91E22BE9
:100EE000EC938FBF8091F403E82FF0E09F01220F75
:100EF000331FE20FF31FE25EFC4F9081907C956000
:100F000090831092F5031092F6036CE00E944C0A55
:100F10002CE0829FB001112440E050E09A01260F9E
:100F2000371FF901EE0FFF1F2E0F3F1FF901E25E81
:100F3000FC4F908196FD17C04F5F5F4F4C305105BD
:100F400069F7813009F07CC21092800082E08093C2
:100F500081001092850010928400B19A80916F00F8
:100F6000826080936F00E091F403F0E0CF01880F7E
:100F7000991FE80FF91FE25EFC4F80818064808337
:100F8000412C512CE0E86E2EEFEB7E2E4092EB03CD
:100F90005092EC036092ED037092EE03C12CD12CC1
:100FA000F0E8EF2EFFE3FF2EC092EF03D092F003A4
:100FB000E092F103F092F2038091F3030091D703E2
:100FC0001091D803D8018D909D90AD90BC9088234E
:100FD00009F44FC0A7019601C501B4010E942C0C71
:100FE000181634F4F801C082D182E282F38210C074
:100FF00020E030E040E85FEBC501B4010E94CD0A7B
:1010000087FF06C0D8014D925D926D927C92139736
:101010008090DF039090E003A090E103B090E203A2
:10102000C090EF03D090F003E090F103F090F20352
:10103000A7019601C501B4010E942C0C181684F07A
:10104000C090EB03D090EC03E090ED03F090EE0342
:10105000A7019601C501B4010E94CD0A87FF3DC0DA
:10106000C092DF03D092E003E092E103F092E2034A
:1010700034C08092DF039092E003A092E103B0922B
:10108000E203E091D503F091D60380819181A281A2
:10109000B3818093E3039093E403A093E503B093BB
:1010A000E60320E030E040E85FE3C501B4010E94C0
:1010B0002C0C1816ACF220E030E040E85FEBC501E4
:1010C000B4010E94CD0A87FF08C04092DF0350920E
:1010D000E0036092E1037092E20381E08093F30306
:1010E0000E94EF0380E090E8ADE6B4E48093AF03A4
:1010F0009093B003A093B103B093B20378E5272E89
:1011000072E0372E0E94EF0364E08DE792E00E94C8
:10111000330360E08DE792E00E9433036091B703F0
:101120007091B8038091B9039091BA030E94D503DE
:101130006091B3037091B4038091B5039091B603AD
:101140000E94D5036091AF037091B0038091B10309
:101150009091B2030E94D5038091F303882309F490
:101160000CC18FB7F89420911A0330911B03409162
:101170001C0350911D032D833E834F8358878FBFDF
:101180008091DB039091DC03A091DD03B091DE033D
:101190004D815E816F817885481B590B6A0B7B0BF3
:1011A0008091E7039091E803A091E903B091EA03ED
:1011B000481759076A077B0708F4DFC0E091D50399
:1011C000F091D60380809180A280B380E091D90312
:1011D000F091DA03A501940160817181828193818C
:1011E0000E94600A69837A838B839C832091CB035E
:1011F0003091CC034091CD035091CE030E94310C2D
:101200002091DF033091E0034091E1035091E2032C
:101210000E94610A6B017C016093DF037093E0031D
:101220008093E1039093E2030091EF031091F003A8
:101230003091F1033A874091F203498798014A853A
:1012400059850E942C0C181664F4C801AA85B9852A
:101250008093DF039093E003A093E103B093E20354
:1012600018C04090EB035090EC036090ED03709039
:10127000EE03A3019201C701B6010E94CD0A87FFC8
:1012800008C04092DF035092E0036092E103709245
:10129000E2032091C7033091C8034091C9035091E4
:1012A000CA0369817A818B819C810E94310C2091D3
:1012B000DF033091E0034091E1035091E2030E948B
:1012C000610A6B017C012091E3033091E4034091BA
:1012D000E5035091E603C501B4010E94600A209124
:1012E000CF033091D0034091D1035091D2030E949B
:1012F000310C9B01AC01C701B6010E94600A6B0171
:101300007C0198014A8559850E942C0C1816B4F06E
:101310000091EB031091EC035091ED035A878091FB
:10132000EE0389879801452F582FB601C7010E9407
:10133000CD0A87FD03C08601EA86F986E091D703CE
:10134000F091D803C801AA85B98580839183A283CF
:10135000B3838092E3039092E403A092E503B092FA
:10136000E6032D813E814F8158852093DB03309326
:10137000DC034093DD035093DE036091B30370916F
:10138000B4038091B5039091B603F090F4033FE26B
:101390003F1508F452C020E030E048EC52E40E94CF
:1013A000310C90580E94440B9B01AC012C593F4FCB
:1013B0004F4F5F4FA4EFB6E00E94C20C28EC30E024
:1013C00040E050E00E94A30C89019A01085A1D4F89
:1013D0002F4F3F4F8091F50348E850E0481B5109DB
:1013E00087FD5395440F551F440F551F04171507CC
:1013F0008CF08091F603A101481B510987FD53959C
:10140000CA01880F991F880F991FA801801791079B
:101410000CF4AC0142505109440F551F2FB7F894FA
:101420008F2D90E0FC01EE0FFF1F8E0F9F1FFC0120
:10143000E25EFC4F528341832FBF0E949C0362CE29
:10144000823061F410929000809391001092950088
:101450001092940088BB8093710085CD833069F42D
:101460001092A00082E08093A1001092A50010923B
:10147000A40089BB8093720076CD811174CD109247
:10148000200182E080932101109225011092240115
:101490008ABB8093730067CD991B79E004C0991FC4
:1014A000961708F0961B881F7A95C9F780950895BE
:1014B000EE0FFF1F881F8BBF0790F691E02D199448
:1014C0005058BB27AA270E94780A0C94F20B0E945E
:1014D000E40B38F00E94EB0B20F039F49F3F19F435
:1014E00026F40C94E10B0EF4E095E7FB0C94DB0B77
:1014F000E92F0E94030C58F3BA1762077307840799
:10150000950720F079F4A6F50C94250C0EF4E095DF
:101510000B2EBA2FA02D0B01B90190010C01CA01AD
:10152000A0011124FF27591B99F0593F50F4503E58
:1015300068F11A16F040A22F232F342F4427585F4A
:10154000F3CF469537952795A795F0405395C9F762
:101550007EF41F16BA0B620B730B840BBAF091501A
:10156000A1F0FF0FBB1F661F771F881FC2F70EC0B9
:10157000BA0F621F731F841F48F48795779567958C
:10158000B795F7959E3F08F0B0CF9395880F08F078
:101590009927EE0F9795879508950E94B70B08F449
:1015A00081E008950E94E60A0C94F20B0E94EB0B76
:1015B00058F00E94E40B40F029F45F3F29F00C94AE
:1015C000DB0B51110C94260C0C94E10B0E94030CC4
:1015D00068F39923B1F3552391F3951B550BBB2762
:1015E000AA2762177307840738F09F5F5F4F220FA7
:1015F000331F441FAA1FA9F335D00E2E3AF0E0E89E
:1016000032D091505040E695001CCAF72BD0FE2FE7
:1016100029D0660F771F881FBB1F2617370748077B
:10162000AB07B0E809F0BB0B802DBF01FF27935833
:101630005F4F3AF09E3F510578F00C94DB0B0C9411
:10164000260C5F3FE4F3983ED4F386957795679533
:10165000B795F7959F5FC9F7880F911D9695879568
:1016600097F90895E1E0660F771F881FBB1F621787
:1016700073078407BA0720F0621B730B840BBA0B45
:10168000EE1F88F7E09508950E944B0B6894B11106
:101690000C94260C08950E940B0C88F09F5798F02C
:1016A000B92F9927B751B0F0E1F0660F771F881F67
:1016B000991F1AF0BA95C9F714C0B13091F00E9481
:1016C000250CB1E008950C94250C672F782F8827FE
:1016D000B85F39F0B93FCCF3869577956795B395A8
:1016E000D9F73EF490958095709561957F4F8F4F17
:1016F0009F4F0895E89409C097FB3EF4909580951C
:10170000709561957F4F8F4F9F4F9923A9F0F92FC7
:1017100096E9BB279395F695879577956795B79545
:10172000F111F8CFFAF4BB0F11F460FF1BC06F5F2B
:101730007F4F8F4F9F4F16C0882311F096E911C03D
:10174000772321F09EE8872F762F05C0662371F05E
:1017500096E8862F70E060E02AF09A95660F771F72
:10176000881FDAF7880F9695879597F90895990F4E
:101770000008550FAA0BE0E8FEEF16161706E8075B
:10178000F907C0F012161306E407F50798F0621B7C
:10179000730B840B950B39F40A2661F0232B242B51
:1017A000252B21F408950A2609F4A140A6958FEF70
:1017B000811D811D089597F99F6780E870E060E0C2
:1017C00008959FEF80EC089500240A9416161706DA
:1017D00018060906089500240A9412161306140622
:1017E00005060895092E0394000C11F4882352F085
:1017F000BB0F40F4BF2B11F460FF04C06F5F7F4F3D
:101800008F4F9F4F089557FD9058440F551F59F023
:101810005F3F71F04795880F97FB991F61F09F3FDD
:1018200079F087950895121613061406551FF2CF06
:101830004695F1DF08C0161617061806991FF1CF56
:1018400086957105610508940895E894BB2766277D
:101850007727CB0197F908950E94B70B08F48FEF13
:1018600008950E94440C0C94F20B0E94E40B38F093
:101870000E94EB0B20F0952311F00C94DB0B0C94E1
:10188000E10B11240C94260C0E94030C70F3959F1D
:10189000C1F3950F50E0551F629FF001729FBB2767
:1018A000F00DB11D639FAA27F00DB11DAA1F649F03
:1018B0006627B00DA11D661F829F2227B00DA11DB6
:1018C000621F739FB00DA11D621F839FA00D611D3C
:1018D000221F749F3327A00D611D231F849F600D5D
:1018E000211D822F762F6A2F11249F5750409AF086
:1018F000F1F088234AF0EE0FFF1FBB1F661F771F12
:10190000881F91505040A9F79E3F510580F00C94DC
:10191000DB0B0C94260C5F3FE4F3983ED4F38695E2
:1019200077956795B795F795E7959F5FC1F7FE2B7C
:10193000880F911D9695879597F9089581E090E01D
:10194000F8940C94FE0C052E97FB1EF400940E9454
:10195000BA0C57FD07D00E94CD0C07FC03D04EF403
:101960000C94BA0C50954095309521953F4F4F4FB0
:101970005F4F089590958095709561957F4F8F4F3B
:101980009F4F08950E94EF0CA59F900DB49F900D5E
:10199000A49F800D911D11240895A1E21A2EAA1B67
:1019A000BB1BFD010DC0AA1FBB1FEE1FFF1FA2170F
:1019B000B307E407F50720F0A21BB30BE40BF50B0C
:1019C000661F771F881F991F1A9469F76095709595
:1019D000809590959B01AC01BD01CF010895A29F18
:1019E000B001B39FC001A39F700D811D1124911DF3
:1019F000B29F700D811D1124911D0895F894FFCFA1
:101A000001000000000000003303AF02FC02DA0214
:041A1000EE027A0365
:00000001FF
